{
  "_format": "hh-sol-artifact-1",
  "contractName": "DMark",
  "sourceName": "contracts/DMark.sol",
  "abi": [
    {
      "inputs": [],
      "stateMutability": "nonpayable",
      "type": "constructor"
    },
    {
      "anonymous": false,
      "inputs": [
        {
          "indexed": true,
          "internalType": "string",
          "name": "name",
          "type": "string"
        },
        {
          "indexed": false,
          "internalType": "uint16",
          "name": "price",
          "type": "uint16"
        }
      ],
      "name": "AssetListed",
      "type": "event"
    },
    {
      "anonymous": false,
      "inputs": [
        {
          "indexed": true,
          "internalType": "string",
          "name": "name",
          "type": "string"
        },
        {
          "indexed": false,
          "internalType": "uint16",
          "name": "price",
          "type": "uint16"
        },
        {
          "indexed": false,
          "internalType": "address",
          "name": "buyer",
          "type": "address"
        }
      ],
      "name": "AssetSold",
      "type": "event"
    },
    {
      "inputs": [
        {
          "internalType": "uint256",
          "name": "",
          "type": "uint256"
        }
      ],
      "name": "assets",
      "outputs": [
        {
          "internalType": "string",
          "name": "name",
          "type": "string"
        },
        {
          "internalType": "uint16",
          "name": "price",
          "type": "uint16"
        },
        {
          "internalType": "enum DMark.OrderStatus",
          "name": "status",
          "type": "uint8"
        }
      ],
      "stateMutability": "view",
      "type": "function"
    },
    {
      "inputs": [],
      "name": "buyer",
      "outputs": [
        {
          "internalType": "address",
          "name": "",
          "type": "address"
        }
      ],
      "stateMutability": "view",
      "type": "function"
    },
    {
      "inputs": [
        {
          "internalType": "string",
          "name": "_name",
          "type": "string"
        },
        {
          "internalType": "uint16",
          "name": "_price",
          "type": "uint16"
        }
      ],
      "name": "createItem",
      "outputs": [],
      "stateMutability": "nonpayable",
      "type": "function"
    },
    {
      "inputs": [
        {
          "internalType": "uint256",
          "name": "",
          "type": "uint256"
        }
      ],
      "name": "isSold",
      "outputs": [
        {
          "internalType": "bool",
          "name": "",
          "type": "bool"
        }
      ],
      "stateMutability": "view",
      "type": "function"
    },
    {
      "inputs": [],
      "name": "owner",
      "outputs": [
        {
          "internalType": "address",
          "name": "",
          "type": "address"
        }
      ],
      "stateMutability": "view",
      "type": "function"
    },
    {
      "inputs": [
        {
          "internalType": "uint8",
          "name": "_index",
          "type": "uint8"
        }
      ],
      "name": "purchaseItem",
      "outputs": [],
      "stateMutability": "payable",
      "type": "function"
    }
  ],
  "bytecode": "0x6080604052348015600f57600080fd5b50336000806101000a81548173ffffffffffffffffffffffffffffffffffffffff021916908373ffffffffffffffffffffffffffffffffffffffff1602179055506112d68061005f6000396000f3fe6080604052600436106100555760003560e01c80630110a1761461005a5780635d18e370146100975780637150d8ae146100c05780638da5cb5b146100eb578063af3bcb7d14610116578063cf35bdd014610132575b600080fd5b34801561006657600080fd5b50610081600480360381019061007c91906107bc565b610171565b60405161008e9190610804565b60405180910390f35b3480156100a357600080fd5b506100be60048036038101906100b9919061099f565b610191565b005b3480156100cc57600080fd5b506100d561033f565b6040516100e29190610a3c565b60405180910390f35b3480156100f757600080fd5b50610100610365565b60405161010d9190610a3c565b60405180910390f35b610130600480360381019061012b9190610a90565b610389565b005b34801561013e57600080fd5b50610159600480360381019061015491906107bc565b61065e565b60405161016893929190610bc2565b60405180910390f35b60036020528060005260406000206000915054906101000a900460ff1681565b600073ffffffffffffffffffffffffffffffffffffffff163373ffffffffffffffffffffffffffffffffffffffff1603610200576040517f08c379a00000000000000000000000000000000000000000000000000000000081526004016101f790610c4c565b60405180910390fd5b61020861073b565b82816000018190525081816020019061ffff16908161ffff168152505060018160400190600381111561023e5761023d610b4b565b5b9081600381111561025257610251610b4b565b5b81525050600281908060018154018082558091505060019003906000526020600020906002020160009091909190915060008201518160000190816102979190610e78565b5060208201518160010160006101000a81548161ffff021916908361ffff16021790555060408201518160010160026101000a81548160ff021916908360038111156102e6576102e5610b4b565b5b02179055505050826040516102fb9190610f86565b60405180910390207f59a88beca0451357885804e51a04d60123a54c53febb9d6a1f96d30a379b813e836040516103329190610f9d565b60405180910390a2505050565b600160009054906101000a900473ffffffffffffffffffffffffffffffffffffffff1681565b60008054906101000a900473ffffffffffffffffffffffffffffffffffffffff1681565b6002805490508160ff16106103d3576040517f08c379a00000000000000000000000000000000000000000000000000000000081526004016103ca90611004565b60405180910390fd5b600060028260ff16815481106103ec576103eb611024565b5b90600052602060002090600202019050600160038111156104105761040f610b4b565b5b8160010160029054906101000a900460ff16600381111561043457610433610b4b565b5b14610474576040517f08c379a000000000000000000000000000000000000000000000000000000000815260040161046b9061109f565b60405180910390fd5b8060010160009054906101000a900461ffff1661ffff1634146104cc576040517f08c379a00000000000000000000000000000000000000000000000000000000081526004016104c39061110b565b60405180910390fd5b60038160010160026101000a81548160ff021916908360038111156104f4576104f3610b4b565b5b02179055506001600360008460ff16815260200190815260200160002060006101000a81548160ff02191690831515021790555060008060009054906101000a900473ffffffffffffffffffffffffffffffffffffffff1673ffffffffffffffffffffffffffffffffffffffff163460405161056f9061115c565b60006040518083038185875af1925050503d80600081146105ac576040519150601f19603f3d011682016040523d82523d6000602084013e6105b1565b606091505b50509050806105f5576040517f08c379a00000000000000000000000000000000000000000000000000000000081526004016105ec906111bd565b60405180910390fd5b816000016040516106069190611260565b60405180910390207f9cd0fa9925e35b2db46713e7a42356e5eb691641eac2586997336e7e25d7f2b18360010160009054906101000a900461ffff1633604051610651929190611277565b60405180910390a2505050565b6002818154811061066e57600080fd5b906000526020600020906002020160009150905080600001805461069190610c9b565b80601f01602080910402602001604051908101604052809291908181526020018280546106bd90610c9b565b801561070a5780601f106106df5761010080835404028352916020019161070a565b820191906000526020600020905b8154815290600101906020018083116106ed57829003601f168201915b5050505050908060010160009054906101000a900461ffff16908060010160029054906101000a900460ff16905083565b604051806060016040528060608152602001600061ffff1681526020016000600381111561076c5761076b610b4b565b5b81525090565b6000604051905090565b600080fd5b600080fd5b6000819050919050565b61079981610786565b81146107a457600080fd5b50565b6000813590506107b681610790565b92915050565b6000602082840312156107d2576107d161077c565b5b60006107e0848285016107a7565b91505092915050565b60008115159050919050565b6107fe816107e9565b82525050565b600060208201905061081960008301846107f5565b92915050565b600080fd5b600080fd5b6000601f19601f8301169050919050565b7f4e487b7100000000000000000000000000000000000000000000000000000000600052604160045260246000fd5b61087282610829565b810181811067ffffffffffffffff821117156108915761089061083a565b5b80604052505050565b60006108a4610772565b90506108b08282610869565b919050565b600067ffffffffffffffff8211156108d0576108cf61083a565b5b6108d982610829565b9050602081019050919050565b82818337600083830152505050565b6000610908610903846108b5565b61089a565b90508281526020810184848401111561092457610923610824565b5b61092f8482856108e6565b509392505050565b600082601f83011261094c5761094b61081f565b5b813561095c8482602086016108f5565b91505092915050565b600061ffff82169050919050565b61097c81610965565b811461098757600080fd5b50565b60008135905061099981610973565b92915050565b600080604083850312156109b6576109b561077c565b5b600083013567ffffffffffffffff8111156109d4576109d3610781565b5b6109e085828601610937565b92505060206109f18582860161098a565b9150509250929050565b600073ffffffffffffffffffffffffffffffffffffffff82169050919050565b6000610a26826109fb565b9050919050565b610a3681610a1b565b82525050565b6000602082019050610a516000830184610a2d565b92915050565b600060ff82169050919050565b610a6d81610a57565b8114610a7857600080fd5b50565b600081359050610a8a81610a64565b92915050565b600060208284031215610aa657610aa561077c565b5b6000610ab484828501610a7b565b91505092915050565b600081519050919050565b600082825260208201905092915050565b60005b83811015610af7578082015181840152602081019050610adc565b60008484015250505050565b6000610b0e82610abd565b610b188185610ac8565b9350610b28818560208601610ad9565b610b3181610829565b840191505092915050565b610b4581610965565b82525050565b7f4e487b7100000000000000000000000000000000000000000000000000000000600052602160045260246000fd5b60048110610b8b57610b8a610b4b565b5b50565b6000819050610b9c82610b7a565b919050565b6000610bac82610b8e565b9050919050565b610bbc81610ba1565b82525050565b60006060820190508181036000830152610bdc8186610b03565b9050610beb6020830185610b3c565b610bf86040830184610bb3565b949350505050565b7f5a65726f2061646472657373206973206e6f7420616c6c6f7765640000000000600082015250565b6000610c36601b83610ac8565b9150610c4182610c00565b602082019050919050565b60006020820190508181036000830152610c6581610c29565b9050919050565b7f4e487b7100000000000000000000000000000000000000000000000000000000600052602260045260246000fd5b60006002820490506001821680610cb357607f821691505b602082108103610cc657610cc5610c6c565b5b50919050565b60008190508160005260206000209050919050565b60006020601f8301049050919050565b600082821b905092915050565b600060088302610d2e7fffffffffffffffffffffffffffffffffffffffffffffffffffffffffffffffff82610cf1565b610d388683610cf1565b95508019841693508086168417925050509392505050565b6000819050919050565b6000610d75610d70610d6b84610786565b610d50565b610786565b9050919050565b6000819050919050565b610d8f83610d5a565b610da3610d9b82610d7c565b848454610cfe565b825550505050565b600090565b610db8610dab565b610dc3818484610d86565b505050565b5b81811015610de757610ddc600082610db0565b600181019050610dc9565b5050565b601f821115610e2c57610dfd81610ccc565b610e0684610ce1565b81016020851015610e15578190505b610e29610e2185610ce1565b830182610dc8565b50505b505050565b600082821c905092915050565b6000610e4f60001984600802610e31565b1980831691505092915050565b6000610e688383610e3e565b9150826002028217905092915050565b610e8182610abd565b67ffffffffffffffff811115610e9a57610e9961083a565b5b610ea48254610c9b565b610eaf828285610deb565b600060209050601f831160018114610ee25760008415610ed0578287015190505b610eda8582610e5c565b865550610f42565b601f198416610ef086610ccc565b60005b82811015610f1857848901518255600182019150602085019450602081019050610ef3565b86831015610f355784890151610f31601f891682610e3e565b8355505b6001600288020188555050505b505050505050565b600081905092915050565b6000610f6082610abd565b610f6a8185610f4a565b9350610f7a818560208601610ad9565b80840191505092915050565b6000610f928284610f55565b915081905092915050565b6000602082019050610fb26000830184610b3c565b92915050565b7f4f7574206f6620626f756e642100000000000000000000000000000000000000600082015250565b6000610fee600d83610ac8565b9150610ff982610fb8565b602082019050919050565b6000602082019050818103600083015261101d81610fe1565b9050919050565b7f4e487b7100000000000000000000000000000000000000000000000000000000600052603260045260246000fd5b7f4173736574206973206e6f7420617661696c61626c6520666f722073616c6500600082015250565b6000611089601f83610ac8565b915061109482611053565b602082019050919050565b600060208201905081810360008301526110b88161107c565b9050919050565b7f496e636f727265637420616d6f756e742073656e740000000000000000000000600082015250565b60006110f5601583610ac8565b9150611100826110bf565b602082019050919050565b60006020820190508181036000830152611124816110e8565b9050919050565b600081905092915050565b50565b600061114660008361112b565b915061115182611136565b600082019050919050565b600061116782611139565b9150819050919050565b7f4661696c656420746f2073656e64204574686572000000000000000000000000600082015250565b60006111a7601483610ac8565b91506111b282611171565b602082019050919050565b600060208201905081810360008301526111d68161119a565b9050919050565b600081546111ea81610c9b565b6111f48186610f4a565b9450600182166000811461120f576001811461122457611257565b60ff1983168652811515820286019350611257565b61122d85610ccc565b60005b8381101561124f57815481890152600182019150602081019050611230565b838801955050505b50505092915050565b600061126c82846111dd565b915081905092915050565b600060408201905061128c6000830185610b3c565b6112996020830184610a2d565b939250505056fea26469706673582212204f6ffb9531694272ab0be176cba7d08d7e60c64d99b1475ed5f413d4c9e0ca8564736f6c634300081b0033",
  "linkReferences": {},
  "deployedLinkReferences": {}
}